:1000000045C0000060C000005EC000005CC0000091
:100010005AC0000058C0000056C0000054C0000084
:1000200052C0000050C000004EC000004CC0000094
:10003000BEC3000048C0000046C0000044C000002D
:1000400042C0000040C000003EC000003CC00000B4
:100050003AC0000038C0000036C0000034C00000C4
:1000600032C0000030C0000060C000002CC00000A2
:100070002AC0000028C0000026C0000024C00000E4
:1000800022C0000020C000001EC0000011241FBEBE
:10009000CFEFD0E1DEBFCDBF11E0A0E0B1E0E2E400
:1000A000FDE000E00BBF02C007900D92AC30B1073D
:1000B000D9F721E0ACE0B1E001C01D92A431B20754
:1000C000E1F7F4D13CC69CCF80EC87B987E886B9CC
:1000D00081EE92E00197F1F70000089540E120E001
:1000E00030E0369A349BFECF54B185B190E0982F22
:1000F0008827850F911D280F391F5FEF8FE392E04E
:10010000515080409040E1F700C00000415049F755
:10011000C90199230CF40F96959587959595879528
:10012000959587959595879508951F920F920FB68F
:100130000F9211240BB60F922F938F939F93EF93EF
:10014000FF9380910F018F5F80930F0180910F01CA
:10015000843010F010920F0120910F0180E890E0A0
:1001600002C0959587952A95E2F7809585BB809189
:100170000F01833039F480910A01813019F48BE545
:100180008BBB29C080910F01823069F480910A01F4
:10019000813049F4E0910F01F0E0E05FFE4F808193
:1001A00080628BBB18C080910F01833069F480910D
:1001B0000A01823049F4E0910F01F0E0E05FFE4F68
:1001C000808180628BBB07C0E0910F01F0E0E05FAF
:1001D000FE4F80818BBB80910C01882331F08AB562
:1001E0009BB502979BBD8ABD05C08AB59BB502969B
:1001F0009BBD8ABD80910D01882331F088B599B5EA
:10020000039799BD88BD05C088B599B5039699BD7A
:1002100088BD80910E01882341F0E8E7F0E08081FD
:10022000918105979183808307C0E8E7F0E08081A2
:1002300091810596918380838AB59BB588359B41D2
:1002400020F48AB59BB5029730F490910C0181E0BF
:10025000892780930C0188B599B588359B4120F496
:1002600088B599B5029730F490910D0181E0892706
:1002700080930D01809178009091790088359B41A1
:1002800030F48091780090917900029730F4909149
:100290000E0181E0892780930E01FF91EF919F91DC
:1002A0008F912F910F900BBE0F900FBE0F901F904C
:1002B00018958FEF8ABB84B3806F84BB1BBA80EF25
:1002C00085BB81E090E0DCC20895AC019C013295D1
:1002D00022952F7023273F702327A7E4B3E002D590
:1002E00096958795969587959695879560E177E29F
:1002F000869F9001879F300D969F300D1124CA0173
:10030000821B930B9C01369527953695279536953C
:100310002795A5ECB0E2E6D4929582958F70892757
:100320009F708927FC01E050FF4F8081809310016E
:100330009A01369527953695279536952795D2D4E7
:10034000929582958F7089279F70892768EE73E058
:10035000869F9001879F300D969F300D1124CA0112
:10036000821B930B9C013695279536952795ABE715
:10037000B4E1B8D496958795FC01E050FF4F808199
:10038000809311019A013695279536952795AAD421
:100390009695879564E6689F9001699F300D1124BA
:1003A000CA01821B930B9C01ADECBCEC9BD49695CF
:1003B00087959695879596958795FC01E050FF4F18
:1003C0008081809312019A018DD496958795969598
:1003D0008795969587959C01220F331F880F991F4B
:1003E000880F991F880F991F820F931F9A01281B4E
:1003F000390BF901E050FF4F80818093130108957C
:100400009923B4F420E820931001919581959109E6
:100410006AE070E032D4FB01E050FF4F208120936E
:100420001101FC01E050FF4F80818093120111C047
:10043000109210016AE070E020D4FB01E050FF4F01
:10044000208120931101FC01E050FF4F80818093B7
:10045000120180ED809313010895FC0110921001A8
:10046000109211019C01ADECBCEC3CD4AC01569552
:1004700047955695479556954795DA01A050BF4F39
:100480008C9180931201CA01880F991F440F551F48
:10049000440F551F440F551F480F591FE41BF50B00
:1004A000E050FF4F80818093130108958FEF87BB49
:1004B0008FE188BBFEDE08DEEBD081E090E081D1E9
:1004C00081E090E09BBD8ABD99BD88BD9093790085
:1004D00080937800789407E111E0D2E0C3E0FEDD7C
:1004E0009C0123523240029FC001039F900D1124B2
:1004F000885C9B4FEADE10930A012FEF8FEF99E59E
:10050000215080409040E1F700C00000C9D078DF62
:10051000D0930A012FEF8FEF99E521508040904052
:10052000E1F700C00000C0930A01EED096DF2FEF84
:100530008FEF99E5215080409040E1F700C0000026
:10054000CECF899A919A90988AE08A95F1F7909AFD
:100550008AE08A95F1F791988AE08A95F1F7909868
:100560008AE08A95F1F7909A8AE08A95F1F7919A54
:100570008AE08A95F1F790988AE08A95F1F70895D4
:10058000919A90988AE08A95F1F789E0909A9AE09A
:100590009A95F1F790989AE09A95F1F78150B1F712
:1005A000D0CF0895899A48E050E020E830E06AE032
:1005B0006A95F1F7B90168237923672B11F0919AB5
:1005C00001C091986AE06A95F1F7909A6AE06A959D
:1005D000F1F79098369527954150510941155105ED
:1005E00031F7919A89988AE08A95F1F7909A6AE0B2
:1005F0006A95F1F790988AE08A95F1F70895BC0121
:10060000919A899828E030E080E090E040E850E05E
:10061000EAE0EA95F1F7909AEAE0EA95F1F7819B32
:1006200002C0842B952B90985695479521503109FF
:100630002115310569F76130710559F4899A91984E
:100640002AE02A95F1F7909AEAE0EA95F1F7909876
:1006500008952AE02A95F1F7909AEAE0EA95F1F7F1
:10066000909808958DDF8EE190E09CDF22E383E790
:1006700099E0215080409040E1F700C000C084E63E
:1006800090E02AE02A95F1F701970097D1F70895B5
:1006900081B3836081BB82B3836082BBE3CF089563
:1006A0001F93CF93DF934DDF8CEC9CE10197F1F723
:1006B00000C0000083E090E075DF919A89988199ED
:1006C000FECF81E090E09BDF182F81E090E097DF84
:1006D000EC0180E090E093DF60E070E0712F6C0F40
:1006E0007D1F80E090E0C9D12AE037ED43E25CE372
:1006F00052D227ED33EA4EE152E429D18DD1CB011C
:10070000DF91CF911F9108958F929F92AF92BF92E8
:10071000CF92DF92EF92FF9214DF8CEC9CE1019775
:10072000F1F700C0000085E090E03CDF919A8998E5
:100730008199FECF81E090E062DFD82E81E090E0E9
:100740005EDF7C0180E090E05ADF60E070E07D2DAC
:100750006E0D7F1D80E090E090D16B017C0124E55F
:1007600033EE45E25DE317D220E030E040E850E4AC
:10077000EED04B015C0122EA37EE4BE356EBC701AA
:10078000B60109D29B01AC01C701B60104D29B019D
:10079000AC01C501B401DCD044D1CB01FF90EF9096
:1007A000DF90CF90BF90AF909F908F9008951F9251
:1007B0000F920FB60F9211240F900FBE0F901F9043
:1007C0001895CF92DF92EF92FF926C018FB58A6AF3
:1007D0008FBD8EB58A618EBDEAE7F0E080818083AF
:1007E0008EB58770833059F018F4823089F004C0D8
:1007F000843041F0853049F021E030E00BC020E446
:1008000030E008C020E031E005C020E034E002C064
:1008100028E030E0442737FD4095542F60E070E039
:1008200081EE90E03DD2CA01B90128EE33E040E00C
:1008300050E036D2E22FEE24D7FCE094FE2CC70124
:10084000B6010CD2DC01CB010197A109B109892FB6
:100850009A2FAB2FBB278BBDEC9DC02C1124EFEF43
:10086000EC0DEABD8FE19EE497BD86BD1DBC1CBCAE
:1008700016BE10927C00FF90EF90DF90CF9008950D
:10088000CF92DF92EF92FF926C01EBE8F0E0808173
:100890008083EAE8F0E080818C608083ACE8B0E09F
:1008A0008C918C9380818770833059F018F482305A
:1008B00089F004C0843041F0853049F021E030E017
:1008C0000BC020E430E008C020E031E005C020E0AB
:1008D00034E002C028E030E0442737FD4095542F33
:1008E00060E070E081EE90E0DBD1CA01B90128EE52
:1008F00033E040E050E0D4D1E22FEE24D7FCE09486
:10090000FE2CC701B601AAD1DC01CB010197A109D8
:10091000B109892F9A2FAB2FBB2780938700EC9DBD
:10092000C02C1124EFEFEC0DE093860010928900AB
:1009300010928800EDE7F0E080818061808316BE30
:1009400010927C00FF90EF90DF90CF900895505868
:10095000BB27AA270ED0E5C0D6D030F0DBD020F0E0
:1009600031F49F3F11F41EF4CBC00EF4E095E7FB89
:10097000C1C0E92FE7D080F3BA1762077307840775
:10098000950718F071F49EF5FFC00EF4E0950B2E5C
:10099000BA2FA02D0B01B90190010C01CA01A001D1
:1009A0001124FF27591B99F0593F50F4503E68F12C
:1009B0001A16F040A22F232F342F4427585FF3CF6D
:1009C000469537952795A795F0405395C9F77EF43E
:1009D0001F16BA0B620B730B840BBAF09150A1F087
:1009E000FF0FBB1F661F771F881FC2F70EC0BA0F0D
:1009F000621F731F841F48F4879577956795B79595
:100A0000F7959E3F08F0B3CF9395880F08F099278C
:100A1000EE0F97958795089504D06894B111B5C0ED
:100A2000089598D088F09F5790F0B92F9927B75123
:100A3000A0F0D1F0660F771F881F991F1AF0BA95A2
:100A4000C9F712C0B13081F09FD0B1E008959CC0C9
:100A5000672F782F8827B85F39F0B93FCCF3869598
:100A600077956795B395D9F73EF4909580957095F5
:100A700061957F4F8F4F9F4F0895E89409C097FB72
:100A80003EF490958095709561957F4F8F4F9F4F65
:100A90009923A9F0F92F96E9BB279395F6958795A9
:100AA00077956795B795F111F8CFFAF4BB0F11F46C
:100AB00060FF1BC06F5F7F4F8F4F9F4F16C0882313
:100AC00011F096E911C0772321F09EE8872F762F49
:100AD00005C0662371F096E8862F70E060E02AF08A
:100AE0009A95660F771F881FDAF7880F9695879576
:100AF00097F9089597F99F6780E870E060E008959E
:100B00009FEF80EC089500240A9416161706180625
:100B10000906089500240A94121613061406050601
:100B20000895092E0394000C11F4882352F0BB0F92
:100B300040F4BF2B11F460FF04C06F5F7F4F8F4FF5
:100B40009F4F089557FD9058440F551F59F05F3F30
:100B500071F04795880F97FB991F61F09F3F79F0DF
:100B600087950895121613061406551FF2CF469561
:100B7000F1DF08C0161617061806991FF1CF8695E3
:100B80007105610508940895E894BB2766277727C7
:100B9000CB0197F908950BD0C4CFB5DF28F0BADFA9
:100BA00018F0952309F0A6CFABCF1124EECFCADF02
:100BB000A0F3959FD1F3950F50E0551F629FF00170
:100BC000729FBB27F00DB11D639FAA27F00DB11DC9
:100BD000AA1F649F6627B00DA11D661F829F222752
:100BE000B00DA11D621F739FB00DA11D621F839FD9
:100BF000A00D611D221F749F3327A00D611D231FAF
:100C0000849F600D211D822F762F6A2F11249F57FC
:100C100050408AF0E1F088234AF0EE0FFF1FBB1F1F
:100C2000661F771F881F91505040A9F79E3F5105BE
:100C300070F060CFAACF5F3FECF3983EDCF386956F
:100C400077956795B795F795E7959F5FC1F7FE2B69
:100C5000880F911D9695879597F90895DB018F93DD
:100C60009F934FD0BF91AF91A29F800D911DA39FE5
:100C7000900DB29F900D1124089597FB072E16F446
:100C8000009406D077FD08D046D007FC05D03EF48E
:100C9000909581959F4F0895709561957F4F089528
:100CA000A1E21A2EAA1BBB1BFD010DC0AA1FBB1F70
:100CB000EE1FFF1FA217B307E407F50720F0A21BE2
:100CC000B30BE40BF50B661F771F881F991F1A944F
:100CD00069F760957095809590959B01AC01BD0179
:100CE000CF010895A29FB001B39FC001A39F700DD3
:100CF000811D1124911DB29F700D811D1124911D24
:100D00000895F0DFA59F900DB49F900DA49F800DD6
:100D1000911D11240895AA1BBB1B51E107C0AA1FF6
:100D2000BB1FA617B70710F0A61BB70B881F991F8C
:100D30005A95A9F780959095BC01CD010895F89436
:020D4000FFCFE3
:0C0D42005F09D59D8B9EDE0DDF9F010038
:00000001FF
